{
  "contractName": "Meme",
  "abi": [
    {
      "constant": true,
      "inputs": [],
      "name": "userCount",
      "outputs": [
        {
          "name": "",
          "type": "uint256"
        }
      ],
      "payable": false,
      "stateMutability": "view",
      "type": "function"
    },
    {
      "constant": true,
      "inputs": [],
      "name": "postCount",
      "outputs": [
        {
          "name": "",
          "type": "uint256"
        }
      ],
      "payable": false,
      "stateMutability": "view",
      "type": "function"
    },
    {
      "constant": true,
      "inputs": [],
      "name": "friendRequestCount",
      "outputs": [
        {
          "name": "",
          "type": "uint256"
        }
      ],
      "payable": false,
      "stateMutability": "view",
      "type": "function"
    },
    {
      "constant": true,
      "inputs": [
        {
          "name": "",
          "type": "address"
        }
      ],
      "name": "checkFunction",
      "outputs": [
        {
          "name": "",
          "type": "bool"
        }
      ],
      "payable": false,
      "stateMutability": "view",
      "type": "function"
    },
    {
      "constant": true,
      "inputs": [
        {
          "name": "",
          "type": "uint256"
        }
      ],
      "name": "groupInformation",
      "outputs": [
        {
          "name": "groupId",
          "type": "uint256"
        },
        {
          "name": "groupOwnerUserId",
          "type": "string"
        },
        {
          "name": "groupHash",
          "type": "string"
        }
      ],
      "payable": false,
      "stateMutability": "view",
      "type": "function"
    },
    {
      "constant": true,
      "inputs": [
        {
          "name": "",
          "type": "uint256"
        }
      ],
      "name": "friendRequestInformation",
      "outputs": [
        {
          "name": "friendRequestId",
          "type": "uint256"
        },
        {
          "name": "fiendRequestHash",
          "type": "string"
        }
      ],
      "payable": false,
      "stateMutability": "view",
      "type": "function"
    },
    {
      "constant": true,
      "inputs": [],
      "name": "groupCount",
      "outputs": [
        {
          "name": "",
          "type": "uint256"
        }
      ],
      "payable": false,
      "stateMutability": "view",
      "type": "function"
    },
    {
      "constant": true,
      "inputs": [
        {
          "name": "",
          "type": "uint256"
        }
      ],
      "name": "postInformation",
      "outputs": [
        {
          "name": "postId",
          "type": "uint256"
        },
        {
          "name": "postOwnerUserId",
          "type": "string"
        },
        {
          "name": "postHash",
          "type": "string"
        }
      ],
      "payable": false,
      "stateMutability": "view",
      "type": "function"
    },
    {
      "constant": true,
      "inputs": [
        {
          "name": "",
          "type": "uint256"
        }
      ],
      "name": "userInformation",
      "outputs": [
        {
          "name": "Id",
          "type": "uint256"
        },
        {
          "name": "userId",
          "type": "string"
        },
        {
          "name": "userHash",
          "type": "string"
        },
        {
          "name": "publickey",
          "type": "string"
        }
      ],
      "payable": false,
      "stateMutability": "view",
      "type": "function"
    },
    {
      "constant": false,
      "inputs": [
        {
          "name": "_userId",
          "type": "string"
        },
        {
          "name": "_userHash",
          "type": "string"
        },
        {
          "name": "_publicKey",
          "type": "string"
        }
      ],
      "name": "addUser",
      "outputs": [],
      "payable": false,
      "stateMutability": "nonpayable",
      "type": "function"
    },
    {
      "constant": false,
      "inputs": [
        {
          "name": "_userId",
          "type": "uint256"
        },
        {
          "name": "_newHash",
          "type": "string"
        }
      ],
      "name": "changeUserInformation",
      "outputs": [],
      "payable": false,
      "stateMutability": "nonpayable",
      "type": "function"
    },
    {
      "constant": false,
      "inputs": [
        {
          "name": "_friendRequestHash",
          "type": "string"
        }
      ],
      "name": "addFriendRequestInformation",
      "outputs": [],
      "payable": false,
      "stateMutability": "nonpayable",
      "type": "function"
    },
    {
      "constant": false,
      "inputs": [
        {
          "name": "_friendRequestId",
          "type": "uint256"
        },
        {
          "name": "_newHash",
          "type": "string"
        }
      ],
      "name": "changeFriendRequestInformation",
      "outputs": [],
      "payable": false,
      "stateMutability": "nonpayable",
      "type": "function"
    },
    {
      "constant": false,
      "inputs": [
        {
          "name": "_userId",
          "type": "uint256"
        },
        {
          "name": "_newHash",
          "type": "string"
        }
      ],
      "name": "changeGroupInformation",
      "outputs": [],
      "payable": false,
      "stateMutability": "nonpayable",
      "type": "function"
    },
    {
      "constant": false,
      "inputs": [
        {
          "name": "_groupOwnerUserId",
          "type": "string"
        },
        {
          "name": "_groupHash",
          "type": "string"
        }
      ],
      "name": "createGroup",
      "outputs": [],
      "payable": false,
      "stateMutability": "nonpayable",
      "type": "function"
    },
    {
      "constant": false,
      "inputs": [
        {
          "name": "_postOwnerUserId",
          "type": "string"
        },
        {
          "name": "_postHash",
          "type": "string"
        }
      ],
      "name": "createPost",
      "outputs": [],
      "payable": false,
      "stateMutability": "nonpayable",
      "type": "function"
    },
    {
      "constant": false,
      "inputs": [
        {
          "name": "_userId",
          "type": "uint256"
        },
        {
          "name": "_newHash",
          "type": "string"
        }
      ],
      "name": "changePostInformation",
      "outputs": [],
      "payable": false,
      "stateMutability": "nonpayable",
      "type": "function"
    },
    {
      "constant": true,
      "inputs": [],
      "name": "getuserCount",
      "outputs": [
        {
          "name": "",
          "type": "uint256"
        }
      ],
      "payable": false,
      "stateMutability": "view",
      "type": "function"
    }
  ],
  "bytecode": "0x6080604052600060065560006007556000600855600060095534801561002457600080fd5b50611be6806100346000396000f3fe608060405234801561001057600080fd5b50600436106101165760003560e01c806380cfd9f4116100a2578063aa4bd40b11610071578063aa4bd40b146109e2578063b5c101d714610aa7578063b778a83914610b6c578063bc7e54a714610c86578063d22a02c514610d4b57610116565b806380cfd9f41461070f57806389e555dc146107bd5780638f23b326146107db57806395c5fed4146107f957610116565b806332ca313c116100e957806332ca313c146102c7578063392338f51461038c57806350898bb0146104de5780635fff3d901461053a5780637e1d6137146105f557610116565b806307973ccf1461011b57806317906c2e146101395780631b0ffe76146101575780631e4a97dd14610175575b600080fd5b610123610ed1565b6040518082815260200191505060405180910390f35b610141610ed7565b6040518082815260200191505060405180910390f35b61015f610edd565b6040518082815260200191505060405180910390f35b6102c56004803603604081101561018b57600080fd5b81019080803590602001906401000000008111156101a857600080fd5b8201836020820111156101ba57600080fd5b803590602001918460018302840111640100000000831117156101dc57600080fd5b91908080601f016020809104026020016040519081016040528093929190818152602001838380828437600081840152601f19601f8201169050808301925050505050505091929192908035906020019064010000000081111561023f57600080fd5b82018360208201111561025157600080fd5b8035906020019184600183028401116401000000008311171561027357600080fd5b91908080601f016020809104026020016040519081016040528093929190818152602001838380828437600081840152601f19601f820116905080830192505050505050509192919290505050610ee3565b005b61038a600480360360408110156102dd57600080fd5b81019080803590602001909291908035906020019064010000000081111561030457600080fd5b82018360208201111561031657600080fd5b8035906020019184600183028401116401000000008311171561033857600080fd5b91908080601f016020809104026020016040519081016040528093929190818152602001838380828437600081840152601f19601f820116905080830192505050505050509192919290505050610f72565b005b6104dc600480360360408110156103a257600080fd5b81019080803590602001906401000000008111156103bf57600080fd5b8201836020820111156103d157600080fd5b803590602001918460018302840111640100000000831117156103f357600080fd5b91908080601f016020809104026020016040519081016040528093929190818152602001838380828437600081840152601f19601f8201169050808301925050505050505091929192908035906020019064010000000081111561045657600080fd5b82018360208201111561046857600080fd5b8035906020019184600183028401116401000000008311171561048a57600080fd5b91908080601f016020809104026020016040519081016040528093929190818152602001838380828437600081840152601f19601f820116905080830192505050505050509192919290505050611064565b005b610520600480360360208110156104f457600080fd5b81019080803573ffffffffffffffffffffffffffffffffffffffff1690602001909291905050506110f3565b604051808215151515815260200191505060405180910390f35b6105f36004803603602081101561055057600080fd5b810190808035906020019064010000000081111561056d57600080fd5b82018360208201111561057f57600080fd5b803590602001918460018302840111640100000000831117156105a157600080fd5b91908080601f016020809104026020016040519081016040528093929190818152602001838380828437600081840152601f19601f820116905080830192505050505050509192919290505050611113565b005b6106216004803603602081101561060b57600080fd5b810190808035906020019092919050505061117c565b604051808481526020018060200180602001838103835285818151815260200191508051906020019080838360005b8381101561066b578082015181840152602081019050610650565b50505050905090810190601f1680156106985780820380516001836020036101000a031916815260200191505b50838103825284818151815260200191508051906020019080838360005b838110156106d15780820151818401526020810190506106b6565b50505050905090810190601f1680156106fe5780820380516001836020036101000a031916815260200191505b509550505050505060405180910390f35b61073b6004803603602081101561072557600080fd5b81019080803590602001909291905050506112d6565b6040518083815260200180602001828103825283818151815260200191508051906020019080838360005b83811015610781578082015181840152602081019050610766565b50505050905090810190601f1680156107ae5780820380516001836020036101000a031916815260200191505b50935050505060405180910390f35b6107c5611392565b6040518082815260200191505060405180910390f35b6107e361139c565b6040518082815260200191505060405180910390f35b6109e06004803603606081101561080f57600080fd5b810190808035906020019064010000000081111561082c57600080fd5b82018360208201111561083e57600080fd5b8035906020019184600183028401116401000000008311171561086057600080fd5b91908080601f016020809104026020016040519081016040528093929190818152602001838380828437600081840152601f19601f820116905080830192505050505050509192919290803590602001906401000000008111156108c357600080fd5b8201836020820111156108d557600080fd5b803590602001918460018302840111640100000000831117156108f757600080fd5b91908080601f016020809104026020016040519081016040528093929190818152602001838380828437600081840152601f19601f8201169050808301925050505050505091929192908035906020019064010000000081111561095a57600080fd5b82018360208201111561096c57600080fd5b8035906020019184600183028401116401000000008311171561098e57600080fd5b91908080601f016020809104026020016040519081016040528093929190818152602001838380828437600081840152601f19601f8201169050808301925050505050505091929192905050506113a2565b005b610aa5600480360360408110156109f857600080fd5b810190808035906020019092919080359060200190640100000000811115610a1f57600080fd5b820183602082011115610a3157600080fd5b80359060200191846001830284011164010000000083111715610a5357600080fd5b91908080601f016020809104026020016040519081016040528093929190818152602001838380828437600081840152601f19601f820116905080830192505050505050509192919290505050611455565b005b610b6a60048036036040811015610abd57600080fd5b810190808035906020019092919080359060200190640100000000811115610ae457600080fd5b820183602082011115610af657600080fd5b80359060200191846001830284011164010000000083111715610b1857600080fd5b91908080601f016020809104026020016040519081016040528093929190818152602001838380828437600081840152601f19601f82011690508083019250505050505050919291929050505061155f565b005b610b9860048036036020811015610b8257600080fd5b8101908080359060200190929190505050611651565b604051808481526020018060200180602001838103835285818151815260200191508051906020019080838360005b83811015610be2578082015181840152602081019050610bc7565b50505050905090810190601f168015610c0f5780820380516001836020036101000a031916815260200191505b50838103825284818151815260200191508051906020019080838360005b83811015610c48578082015181840152602081019050610c2d565b50505050905090810190601f168015610c755780820380516001836020036101000a031916815260200191505b509550505050505060405180910390f35b610d4960048036036040811015610c9c57600080fd5b810190808035906020019092919080359060200190640100000000811115610cc357600080fd5b820183602082011115610cd557600080fd5b80359060200191846001830284011164010000000083111715610cf757600080fd5b91908080601f016020809104026020016040519081016040528093929190818152602001838380828437600081840152601f19601f8201169050808301925050505050505091929192905050506117ab565b005b610d7760048036036020811015610d6157600080fd5b810190808035906020019092919050505061189d565b60405180858152602001806020018060200180602001848103845287818151815260200191508051906020019080838360005b83811015610dc5578082015181840152602081019050610daa565b50505050905090810190601f168015610df25780820380516001836020036101000a031916815260200191505b50848103835286818151815260200191508051906020019080838360005b83811015610e2b578082015181840152602081019050610e10565b50505050905090810190601f168015610e585780820380516001836020036101000a031916815260200191505b50848103825285818151815260200191508051906020019080838360005b83811015610e91578082015181840152602081019050610e76565b50505050905090810190601f168015610ebe5780820380516001836020036101000a031916815260200191505b5097505050505050505060405180910390f35b60065481565b60095481565b60075481565b6008600081548092919060010191905055506040518060600160405280600854815260200183815260200182815250600360006008548152602001908152602001600020600082015181600001556020820151816001019080519060200190610f4d929190611a95565b506040820151816002019080519060200190610f6a929190611a95565b509050505050565b600082905060608290506060600560008681526020019081526020016000206001018054600181600116156101000203166002900480601f0160208091040260200160405190810160405280929190818152602001828054600181600116156101000203166002900480156110285780601f10610ffd57610100808354040283529160200191611028565b820191906000526020600020905b81548152906001019060200180831161100b57829003601f168201915b505050505090508190508060056000878152602001908152602001600020600101908051906020019061105c929190611b15565b505050505050565b60096000815480929190600101919050555060405180606001604052806009548152602001838152602001828152506004600060095481526020019081526020016000206000820151816000015560208201518160010190805190602001906110ce929190611a95565b5060408201518160020190805190602001906110eb929190611a95565b509050505050565b60016020528060005260406000206000915054906101000a900460ff1681565b600760008154809291906001019190505550604051806040016040528060018152602001828152506005600060018152602001908152602001600020600082015181600001556020820151816001019080519060200190611175929190611a95565b5090505050565b6003602052806000526040600020600091509050806000015490806001018054600181600116156101000203166002900480601f01602080910402602001604051908101604052809291908181526020018280546001816001161561010002031660029004801561122e5780601f106112035761010080835404028352916020019161122e565b820191906000526020600020905b81548152906001019060200180831161121157829003601f168201915b505050505090806002018054600181600116156101000203166002900480601f0160208091040260200160405190810160405280929190818152602001828054600181600116156101000203166002900480156112cc5780601f106112a1576101008083540402835291602001916112cc565b820191906000526020600020905b8154815290600101906020018083116112af57829003601f168201915b5050505050905083565b6005602052806000526040600020600091509050806000015490806001018054600181600116156101000203166002900480601f0160208091040260200160405190810160405280929190818152602001828054600181600116156101000203166002900480156113885780601f1061135d57610100808354040283529160200191611388565b820191906000526020600020905b81548152906001019060200180831161136b57829003601f168201915b5050505050905082565b6000600654905090565b60085481565b6006600081548092919060010191905055506040518060800160405280600654815260200184815260200183815260200182815250600260006006548152602001908152602001600020600082015181600001556020820151816001019080519060200190611412929190611a95565b50604082015181600201908051906020019061142f929190611a95565b50606082015181600301908051906020019061144c929190611a95565b50905050505050565b6000829050606082905060065482111580156114715750600082115b15611559576060600260008681526020019081526020016000206002018054600181600116156101000203166002900480601f0160208091040260200160405190810160405280929190818152602001828054600181600116156101000203166002900480156115225780601f106114f757610100808354040283529160200191611522565b820191906000526020600020905b81548152906001019060200180831161150557829003601f168201915b5050505050905081905080600260008781526020019081526020016000206002019080519060200190611556929190611b15565b50505b50505050565b600082905060608290506060600460008681526020019081526020016000206002018054600181600116156101000203166002900480601f0160208091040260200160405190810160405280929190818152602001828054600181600116156101000203166002900480156116155780601f106115ea57610100808354040283529160200191611615565b820191906000526020600020905b8154815290600101906020018083116115f857829003601f168201915b5050505050905081905080600460008781526020019081526020016000206002019080519060200190611649929190611b15565b505050505050565b6004602052806000526040600020600091509050806000015490806001018054600181600116156101000203166002900480601f0160208091040260200160405190810160405280929190818152602001828054600181600116156101000203166002900480156117035780601f106116d857610100808354040283529160200191611703565b820191906000526020600020905b8154815290600101906020018083116116e657829003601f168201915b505050505090806002018054600181600116156101000203166002900480601f0160208091040260200160405190810160405280929190818152602001828054600181600116156101000203166002900480156117a15780601f10611776576101008083540402835291602001916117a1565b820191906000526020600020905b81548152906001019060200180831161178457829003601f168201915b5050505050905083565b600082905060608290506060600360008681526020019081526020016000206002018054600181600116156101000203166002900480601f0160208091040260200160405190810160405280929190818152602001828054600181600116156101000203166002900480156118615780601f1061183657610100808354040283529160200191611861565b820191906000526020600020905b81548152906001019060200180831161184457829003601f168201915b5050505050905081905080600360008781526020019081526020016000206002019080519060200190611895929190611b15565b505050505050565b6002602052806000526040600020600091509050806000015490806001018054600181600116156101000203166002900480601f01602080910402602001604051908101604052809291908181526020018280546001816001161561010002031660029004801561194f5780601f106119245761010080835404028352916020019161194f565b820191906000526020600020905b81548152906001019060200180831161193257829003601f168201915b505050505090806002018054600181600116156101000203166002900480601f0160208091040260200160405190810160405280929190818152602001828054600181600116156101000203166002900480156119ed5780601f106119c2576101008083540402835291602001916119ed565b820191906000526020600020905b8154815290600101906020018083116119d057829003601f168201915b505050505090806003018054600181600116156101000203166002900480601f016020809104026020016040519081016040528092919081815260200182805460018160011615610100020316600290048015611a8b5780601f10611a6057610100808354040283529160200191611a8b565b820191906000526020600020905b815481529060010190602001808311611a6e57829003601f168201915b5050505050905084565b828054600181600116156101000203166002900490600052602060002090601f016020900481019282601f10611ad657805160ff1916838001178555611b04565b82800160010185558215611b04579182015b82811115611b03578251825591602001919060010190611ae8565b5b509050611b119190611b95565b5090565b828054600181600116156101000203166002900490600052602060002090601f016020900481019282601f10611b5657805160ff1916838001178555611b84565b82800160010185558215611b84579182015b82811115611b83578251825591602001919060010190611b68565b5b509050611b919190611b95565b5090565b611bb791905b80821115611bb3576000816000905550600101611b9b565b5090565b9056fea165627a7a72305820ea9f7082ef8c5305379623e1deafc84a2ee18e787f7e0be590dc10e4b0edfcdf0029",
  "source": "pragma solidity 0.5.8;\n\ncontract Meme{\n    //Smarty Contract code goes here\n    string memeHash;\n\n    mapping(address=>bool) public checkFunction;\n\n  struct userHash{\n        uint Id;\n        string userId;\n        string userHash;\n        string publickey;\n    }\n\n    struct groupHash{\n        uint groupId;\n        string groupOwnerUserId;\n        string groupHash;\n    }\n    struct postHash{\n        uint postId;\n        string postOwnerUserId;\n        string postHash;\n    }\n\nstruct friendRequestHash{\n        uint friendRequestId;\n        string fiendRequestHash;\n    }\n\n\n\n    //Write function\n  \n       mapping(uint=>userHash) public userInformation;\n       mapping(uint=>groupHash) public groupInformation;\n       mapping(uint=>postHash) public postInformation;\n       mapping(uint=>friendRequestHash) public friendRequestInformation;\n\n\n    // Adding informtion of userInformation table \n    function addUser(string memory _userId,string memory _userHash,string memory _publicKey) public {\n        userCount++;\n         userInformation[userCount]= userHash(userCount,_userId,_userHash, _publicKey);\n     }\n\n    uint public userCount=0;\n    function changeUserInformation(uint  _userId,string memory _newHash) public {\n        uint checkId = _userId;\n        string memory newHash=_newHash;\n       // require((checkId<= userCount) && (checkId>0), message to be displayed);\n        if((checkId<= userCount) && (checkId>0)){\n            string memory k= userInformation[_userId].userHash;\n            k=newHash;\n            userInformation[_userId].userHash=k;\n        }\n    }\n\n    uint public friendRequestCount=0;\n\n    function addFriendRequestInformation(string memory _friendRequestHash) public {\n         friendRequestCount++;\n         friendRequestInformation[1]= friendRequestHash( 1,_friendRequestHash);\n     }\n\n\n    function changeFriendRequestInformation(uint  _friendRequestId,string memory _newHash) public {\n        uint checkId = _friendRequestId;\n        string memory newHash=_newHash;\n       // require((checkId<= userCount) && (checkId>0), message to be displayed);\n        \n            string memory k= friendRequestInformation[_friendRequestId].fiendRequestHash;\n            k=newHash;\n            friendRequestInformation[_friendRequestId].fiendRequestHash=k;\n        \n    }\n\n\n\n\n\n    function changeGroupInformation(uint  _userId,string memory _newHash) public {\n        uint checkId = _userId;\n        string memory newHash=_newHash;\n       // require((checkId<= userCount) && (checkId>0), message to be displayed);\n       \n            string memory k= groupInformation[_userId].groupHash;\n            k=newHash;\n            groupInformation[_userId].groupHash=k;\n        \n    }\n\n\n\n    uint public groupCount=0;\n    function createGroup(string memory _groupOwnerUserId,string memory _groupHash)  public {\n        groupCount++;\n        groupInformation[groupCount]=groupHash(groupCount,_groupOwnerUserId,_groupHash);\n    }\n\n  \n\n    uint public postCount=0;\n    function createPost(string memory _postOwnerUserId,string memory _postHash)  public {\n        postCount++;\n        postInformation[postCount]=postHash(postCount,_postOwnerUserId,_postHash);\n    }\n\n    function changePostInformation(uint  _userId,string memory _newHash) public {\n        uint checkId = _userId;\n        string memory newHash=_newHash;\n       // require((checkId<= userCount) && (checkId>0), message to be displayed);\n       \n            string memory k= postInformation[_userId].postHash;\n            k=newHash;\n            postInformation[_userId].postHash=k;\n        \n    }\n       \n    \n\n    // uint public postCount=0;\n    // function createPost(string memory _postedByEmailId,string memory _postHash, string memory _uniquePostId)  public {\n    //     postCount++;\n    //     postInformation[postCount]=postHash(postCount,_postedByEmailId,_postHash,_uniquePostId);\n    // }\n\n\n\n       function getuserCount() public view returns(uint)\n    {\n        return userCount;\n    }\n\n \n\n\n}",
  "sourcePath": "/Users/rutvikpatel/Desktop/Project/BlockChainApp/BlockChainWithIPFS/starter_kit/src/contracts/Meme.sol",
  "compiler": {
    "name": "solc",
    "version": "0.5.8+commit.23d335f2.Emscripten.clang"
  },
  "schemaVersion": "3.0.14",
  "updatedAt": "2020-10-28T16:02:04.952Z",
  "devdoc": {
    "methods": {}
  },
  "userdoc": {
    "methods": {}
  }
}